{
  "contractName": "Robust0a",
  "abi": [
    {
      "constant": false,
      "inputs": [],
      "name": "give",
      "outputs": [],
      "payable": false,
      "stateMutability": "nonpayable",
      "type": "function"
    }
  ],
  "bytecode": "0x6060604052341561000f57600080fd5b6101148061001e6000396000f300606060405260043610603f576000357c0100000000000000000000000000000000000000000000000000000000900463ffffffff1680639e96a23a146044575b600080fd5b3415604e57600080fd5b60546056565b005b6000809054906101000a900460ff16151515607057600080fd5b60016000806101000a81548160ff0219169083151502179055503373ffffffffffffffffffffffffffffffffffffffff1660023073ffffffffffffffffffffffffffffffffffffffff163181151560c357fe5b0460405160006040518083038185876187965a03f192505050151560e657600080fd5b5600a165627a7a72305820abc975d3395a9d2bedd7feea229529b15cc83659a5801e38804fc470815302d70029",
  "source": "pragma solidity ^0.4.19;\n\ncontract Robust0a {\n    bool alreadyPaid;\n\n    // Fail early, marked paid before paying\n    function give() public {\n        require(!alreadyPaid);\n        alreadyPaid = true;\n        // Harsh way, to revert everything\n        require(msg.sender.call.value(address(this).balance / 2)());\n    }\n}\n",
  "sourcePath": "/home/lluisa/DAPPS/splitter_project/contracts/Robust0a.sol",
  "compiler": {
    "name": "solc",
    "version": "0.4.19+commit.c4cbbb05.Emscripten.clang"
  },
  "schemaVersion": "2.0.0",
  "updatedAt": "2018-11-01T12:22:21.596Z"
}