{
  "contractName": "Splitter",
  "abi": [
    {
      "constant": true,
      "inputs": [],
      "name": "owner",
      "outputs": [
        {
          "name": "",
          "type": "address"
        }
      ],
      "payable": false,
      "stateMutability": "view",
      "type": "function"
    },
    {
      "inputs": [],
      "payable": false,
      "stateMutability": "nonpayable",
      "type": "constructor"
    },
    {
      "constant": false,
      "inputs": [],
      "name": "withdraw",
      "outputs": [],
      "payable": false,
      "stateMutability": "nonpayable",
      "type": "function"
    },
    {
      "constant": false,
      "inputs": [
        {
          "name": "recipient1",
          "type": "address"
        },
        {
          "name": "recipient2",
          "type": "address"
        }
      ],
      "name": "transferSharedEther",
      "outputs": [],
      "payable": true,
      "stateMutability": "payable",
      "type": "function"
    },
    {
      "constant": false,
      "inputs": [],
      "name": "killMe",
      "outputs": [
        {
          "name": "",
          "type": "bool"
        }
      ],
      "payable": false,
      "stateMutability": "nonpayable",
      "type": "function"
    }
  ],
  "bytecode": "0x608060405234801561001057600080fd5b50336000806101000a81548173ffffffffffffffffffffffffffffffffffffffff021916908373ffffffffffffffffffffffffffffffffffffffff1602179055506103ef806100606000396000f300608060405260043610610062576000357c0100000000000000000000000000000000000000000000000000000000900463ffffffff1680633ccfd60b146100675780634e16c7071461007e5780638da5cb5b146100d4578063b603cd801461012b575b600080fd5b34801561007357600080fd5b5061007c61015a565b005b6100d2600480360381019080803573ffffffffffffffffffffffffffffffffffffffff169060200190929190803573ffffffffffffffffffffffffffffffffffffffff16906020019092919050505061023d565b005b3480156100e057600080fd5b506100e9610307565b604051808273ffffffffffffffffffffffffffffffffffffffff1673ffffffffffffffffffffffffffffffffffffffff16815260200191505060405180910390f35b34801561013757600080fd5b5061014061032c565b604051808215151515815260200191505060405180910390f35b6000600160003373ffffffffffffffffffffffffffffffffffffffff1673ffffffffffffffffffffffffffffffffffffffff168152602001908152602001600020549050600081101515156101ae57600080fd5b6000600160003373ffffffffffffffffffffffffffffffffffffffff1673ffffffffffffffffffffffffffffffffffffffff168152602001908152602001600020819055503373ffffffffffffffffffffffffffffffffffffffff166108fc829081150290604051600060405180830381858888f19350505050158015610239573d6000803e3d6000fd5b5050565b600080600060023481151561024e57fe5b0614151561025b57600080fd5b60023481151561026757fe5b04915060023481151561027657fe5b04905081600160008673ffffffffffffffffffffffffffffffffffffffff1673ffffffffffffffffffffffffffffffffffffffff1681526020019081526020016000208190555080600160008573ffffffffffffffffffffffffffffffffffffffff1673ffffffffffffffffffffffffffffffffffffffff1681526020019081526020016000208190555050505050565b6000809054906101000a900473ffffffffffffffffffffffffffffffffffffffff1681565b60008060009054906101000a900473ffffffffffffffffffffffffffffffffffffffff1673ffffffffffffffffffffffffffffffffffffffff163373ffffffffffffffffffffffffffffffffffffffff1614151561038957600080fd5b6000809054906101000a900473ffffffffffffffffffffffffffffffffffffffff1673ffffffffffffffffffffffffffffffffffffffff16ff00a165627a7a72305820a8757a4fe1104e3619b09502c5cb6c6ef524b6509c1725ef004e23a5ead6e04a0029",
  "source": "pragma solidity ^0.4.19;\r\n\r\ncontract Splitter {\r\n    address public owner;\r\n    mapping (address => uint) pendingWithdrawals; \r\n\r\n    function Splitter() public {\r\n        owner = msg.sender; \r\n    }\r\n   \r\n    function withdraw() public { \r\n        uint amount = pendingWithdrawals[msg.sender];\r\n        require (amount >= 0);\r\n        pendingWithdrawals[msg.sender] = 0; \r\n        msg.sender.transfer(amount);\r\n    }\r\n\r\n    function transferSharedEther(address  recipient1, address  recipient2) public payable {\r\n        require (msg.value % 2 == 0);\r\n        uint amountToSend1 = msg.value/2;\r\n        uint amountToSend2 = msg.value/2;\r\n        pendingWithdrawals[recipient1] = amountToSend1;\r\n        pendingWithdrawals[recipient2] = amountToSend2;\r\n    } \r\n\r\n    function killMe() public returns (bool) {\r\n        require(msg.sender == owner);\r\n        selfdestruct(owner);\r\n        return true;\r\n    }\r\n}\r\n\r\n",
  "sourcePath": "/home/lluisa/Documents/B9Lab-Project1/contracts/Splitter.sol",
  "compiler": {
    "name": "solc",
    "version": "0.4.24+commit.e67f0147.Emscripten.clang"
  },
  "schemaVersion": "2.0.1",
  "updatedAt": "2018-11-14T17:37:59.870Z"
}