{
  "contractName": "Splitter",
  "abi": [
    {
      "constant": true,
      "inputs": [],
      "name": "owner",
      "outputs": [
        {
          "name": "",
          "type": "address"
        }
      ],
      "payable": false,
      "stateMutability": "view",
      "type": "function"
    },
    {
      "inputs": [],
      "payable": true,
      "stateMutability": "payable",
      "type": "constructor"
    },
    {
      "payable": true,
      "stateMutability": "payable",
      "type": "fallback"
    },
    {
      "constant": true,
      "inputs": [],
      "name": "getBalance",
      "outputs": [
        {
          "name": "",
          "type": "uint256"
        }
      ],
      "payable": false,
      "stateMutability": "view",
      "type": "function"
    },
    {
      "constant": false,
      "inputs": [],
      "name": "getWei",
      "outputs": [],
      "payable": false,
      "stateMutability": "nonpayable",
      "type": "function"
    },
    {
      "constant": false,
      "inputs": [
        {
          "name": "toWhom",
          "type": "address"
        }
      ],
      "name": "sendWei",
      "outputs": [],
      "payable": false,
      "stateMutability": "nonpayable",
      "type": "function"
    },
    {
      "constant": true,
      "inputs": [],
      "name": "getSendAmount",
      "outputs": [
        {
          "name": "",
          "type": "uint256"
        }
      ],
      "payable": false,
      "stateMutability": "view",
      "type": "function"
    },
    {
      "constant": false,
      "inputs": [],
      "name": "killMe",
      "outputs": [
        {
          "name": "",
          "type": "bool"
        }
      ],
      "payable": false,
      "stateMutability": "nonpayable",
      "type": "function"
    }
  ],
  "bytecode": "0x6060604052336000806101000a81548173ffffffffffffffffffffffffffffffffffffffff021916908373ffffffffffffffffffffffffffffffffffffffff1602179055506706f05b59d3b20000600181905550610336806100626000396000f300606060405260043610610078576000357c0100000000000000000000000000000000000000000000000000000000900463ffffffff16806312065fe01461007a578063148f2e5e146100a35780633ba15036146100dc5780638da5cb5b146100f157806390b08a5214610146578063b603cd801461016f575b005b341561008557600080fd5b61008d61019c565b6040518082815260200191505060405180910390f35b34156100ae57600080fd5b6100da600480803573ffffffffffffffffffffffffffffffffffffffff169060200190919050506101bb565b005b34156100e757600080fd5b6100ef610200565b005b34156100fc57600080fd5b610104610244565b604051808273ffffffffffffffffffffffffffffffffffffffff1673ffffffffffffffffffffffffffffffffffffffff16815260200191505060405180910390f35b341561015157600080fd5b610159610269565b6040518082815260200191505060405180910390f35b341561017a57600080fd5b610182610273565b604051808215151515815260200191505060405180910390f35b60003073ffffffffffffffffffffffffffffffffffffffff1631905090565b8073ffffffffffffffffffffffffffffffffffffffff166108fc6001549081150290604051600060405180830381858888f1935050505015156101fd57600080fd5b50565b3373ffffffffffffffffffffffffffffffffffffffff166108fc6001549081150290604051600060405180830381858888f19350505050151561024257600080fd5b565b6000809054906101000a900473ffffffffffffffffffffffffffffffffffffffff1681565b6000600154905090565b60008060009054906101000a900473ffffffffffffffffffffffffffffffffffffffff1673ffffffffffffffffffffffffffffffffffffffff163373ffffffffffffffffffffffffffffffffffffffff161415156102d057600080fd5b6000809054906101000a900473ffffffffffffffffffffffffffffffffffffffff1673ffffffffffffffffffffffffffffffffffffffff16ff00a165627a7a7230582074c84596a1f7bc331b5757e93e2fd98a1a0492666f4a75fe0dfced3b491123f60029",
  "source": "pragma solidity ^0.4.19;\n\nimport \"./ConvertLib.sol\";\n\ncontract Splitter {\n    address public owner;\n    uint256 sendAmount;\n\n    function Splitter() public payable {\n        owner = msg.sender;\n        sendAmount = 0.5 ether;\n    }\n\n    function getBalance() public view returns (uint) {\n         return address(this).balance;\n    }\n\n    function getWei() public {\n        msg.sender.transfer(sendAmount);\n    }\n\n    function sendWei(address toWhom) public {\n        toWhom.transfer(sendAmount);\n    }\n\n    function getSendAmount() public view returns (uint256) {\n        return sendAmount;\n    }\n\n    function killMe() public returns (bool) {\n        require(msg.sender == owner);\n        selfdestruct(owner);\n        return true;\n    }\n\n    function() public payable {}\n} \n\n",
  "sourcePath": "/home/lluisa/DAPPS/splitter_project/contracts/Splitter.sol",
  "compiler": {
    "name": "solc",
    "version": "0.4.19+commit.c4cbbb05.Emscripten.clang"
  },
  "schemaVersion": "2.0.0",
  "updatedAt": "2018-11-01T12:22:21.595Z"
}